:100000000C942A000C9447000C9447000C94470071
:100010000C9447000C9447000C9447000C94470044
:100020000C9447000C9447000C9447000C94470034
:100030000C9447000C9447000C9447000C94470024
:100040000C9447000C9447000C9447000C94470014
:100050000C94470011241FBECFE5D4E0DEBFCDBF16
:1000600010E0A0E6B0E0E2EFF2E002C005900D92F1
:10007000A837B107D9F720E0A8E7B0E001C01D928A
:10008000A138B207E1F70E94EE000C9477010C94BE
:100090000000D098D898089589B38170089581B3ED
:1000A0008E6081BB82B38E6082BB84B38FEF84BBD2
:1000B00085B315BA10927900089592B39E6092BBF1
:1000C00042B3815021E030E0B90102C0660F771FD2
:1000D0008A95E2F7CB018095842382BB08959091A5
:1000E0007800913089F4613041F4E82FF0E0E05A73
:1000F000FF4F808185BBAF9A0895E82FF0E0E05A6A
:10010000FF4F808185BB089515BA089580937800CC
:100110000895DC01EAE7F0E08C91808311968C91E0
:100120001197818312968C9182830895CF93C09109
:10013000790082E08C0F0E945D00C11109C061E06E
:1001400080917A000E946F0081E08093790010C056
:10015000EC2FF0E0E658FF4F60E080810E946F00D6
:10016000CF5FC33019F0C093790002C010927900BC
:10017000CF910895B99AC1980895811102C0C19A8A
:100180000895C1980895FC01A62FB72F03962191D9
:100190002D93E817F907D9F7089580917F008150D2
:1001A00018F080937F000895EDE7F0E089E0828306
:1001B0008181815018F080937E000895EDE7F0E092
:1001C00085E081838081815080838F3F31F482E09C
:1001D0008093800010821182128208950E9449004B
:1001E0000E94BA000E944F00C12CD12C7601C1E0C0
:1001F0000E9496008AEF8A95F1F70E944C008111C7
:100200003EC0809180008130C9F488EEC81683E03A
:10021000D806E104F10448F00E94CD008DE790E09B
:100220000E948900C12CD12C76018FEFC81AD80A00
:10023000E80AF80A80E00E94BD00DACF8230C1F6F9
:1002400084EFC81681E0D806E104F10420F48C2F75
:100250000E94BD000EC088EEC81683E0D806E104F7
:10026000F10420F480E00E94BD0003C0C12CD12C19
:1002700076018FEFC81AD80AE80AF80AB9CF0E94A7
:100280006D01811110C0C09380008C2F0E948600E8
:100290006DE770E084E790E00E94C3008DE790E096
:1002A0000E948900A5CF0E946D01823081F4C09325
:1002B00080008C2F0E9486006DE770E081E790E05F
:1002C0000E94C3008DE790E00E94890091CF1092B8
:1002D000800080E00E9486008BCFC99B04C0CA9B2F
:1002E00004C082E0089580E0089581E00895F894C4
:0202F000FFCF3E
:1002F2003F065B4F666D7D077F6F777C395E797154
:080302000000030001010500E9
:00000001FF
